{
  "contractName": "Election",
  "abi": [
    {
      "inputs": [
        {
          "internalType": "string[]",
          "name": "candidateNames",
          "type": "string[]"
        }
      ],
      "stateMutability": "nonpayable",
      "type": "constructor"
    },
    {
      "anonymous": false,
      "inputs": [
        {
          "indexed": true,
          "internalType": "uint256",
          "name": "_candidateId",
          "type": "uint256"
        }
      ],
      "name": "Voted",
      "type": "event"
    },
    {
      "inputs": [
        {
          "internalType": "uint256",
          "name": "",
          "type": "uint256"
        }
      ],
      "name": "candidates",
      "outputs": [
        {
          "internalType": "uint256",
          "name": "id",
          "type": "uint256"
        },
        {
          "internalType": "string",
          "name": "name",
          "type": "string"
        },
        {
          "internalType": "uint256",
          "name": "voteCount",
          "type": "uint256"
        }
      ],
      "stateMutability": "view",
      "type": "function"
    },
    {
      "inputs": [],
      "name": "candidatesCount",
      "outputs": [
        {
          "internalType": "uint256",
          "name": "",
          "type": "uint256"
        }
      ],
      "stateMutability": "view",
      "type": "function"
    },
    {
      "inputs": [],
      "name": "electionState",
      "outputs": [
        {
          "internalType": "enum Election.State",
          "name": "",
          "type": "uint8"
        }
      ],
      "stateMutability": "view",
      "type": "function"
    },
    {
      "inputs": [],
      "name": "owner",
      "outputs": [
        {
          "internalType": "address",
          "name": "",
          "type": "address"
        }
      ],
      "stateMutability": "view",
      "type": "function"
    },
    {
      "inputs": [],
      "name": "votersCount",
      "outputs": [
        {
          "internalType": "uint256",
          "name": "",
          "type": "uint256"
        }
      ],
      "stateMutability": "view",
      "type": "function"
    },
    {
      "inputs": [],
      "name": "startElection",
      "outputs": [],
      "stateMutability": "nonpayable",
      "type": "function"
    },
    {
      "inputs": [],
      "name": "endElection",
      "outputs": [],
      "stateMutability": "nonpayable",
      "type": "function"
    },
    {
      "inputs": [
        {
          "internalType": "string",
          "name": "_name",
          "type": "string"
        }
      ],
      "name": "addCandidate",
      "outputs": [],
      "stateMutability": "nonpayable",
      "type": "function"
    },
    {
      "inputs": [
        {
          "internalType": "address",
          "name": "_voter",
          "type": "address"
        }
      ],
      "name": "addVoter",
      "outputs": [],
      "stateMutability": "nonpayable",
      "type": "function"
    },
    {
      "inputs": [
        {
          "internalType": "address",
          "name": "_current",
          "type": "address"
        }
      ],
      "name": "getRole",
      "outputs": [
        {
          "internalType": "uint256",
          "name": "",
          "type": "uint256"
        }
      ],
      "stateMutability": "view",
      "type": "function"
    },
    {
      "inputs": [
        {
          "internalType": "uint256",
          "name": "_candidateId",
          "type": "uint256"
        }
      ],
      "name": "vote",
      "outputs": [],
      "stateMutability": "nonpayable",
      "type": "function"
    },
    {
      "inputs": [
        {
          "internalType": "uint256",
          "name": "_candidateId",
          "type": "uint256"
        }
      ],
      "name": "getCandidateDetails",
      "outputs": [
        {
          "internalType": "string",
          "name": "",
          "type": "string"
        },
        {
          "internalType": "uint256",
          "name": "",
          "type": "uint256"
        }
      ],
      "stateMutability": "view",
      "type": "function"
    },
    {
      "inputs": [],
      "name": "getResults",
      "outputs": [
        {
          "internalType": "uint256[]",
          "name": "",
          "type": "uint256[]"
        }
      ],
      "stateMutability": "view",
      "type": "function"
    }
  ],
  "bytecode": "0x6080604052600060045560006005553480156200001b57600080fd5b5060405162001ef938038062001ef983398181016040528101906200004191906200048e565b336000806101000a81548173ffffffffffffffffffffffffffffffffffffffff021916908373ffffffffffffffffffffffffffffffffffffffff16021790555060005b81518110156200013d5760016040518060600160405280838152602001848481518110620000b757620000b6620004df565b5b60200260200101518152602001600081525090806001815401808255809150506001900390600052602060002090600302016000909190919091506000820151816000015560208201518160010190805190602001906200011a92919062000145565b506040820151816002015550508080620001349062000547565b91505062000084565b5050620005f8565b8280546200015390620005c3565b90600052602060002090601f016020900481019282620001775760008555620001c3565b82601f106200019257805160ff1916838001178555620001c3565b82800160010185558215620001c3579182015b82811115620001c2578251825591602001919060010190620001a5565b5b509050620001d29190620001d6565b5090565b5b80821115620001f1576000816000905550600101620001d7565b5090565b6000604051905090565b600080fd5b600080fd5b600080fd5b6000601f19601f8301169050919050565b7f4e487b7100000000000000000000000000000000000000000000000000000000600052604160045260246000fd5b62000259826200020e565b810181811067ffffffffffffffff821117156200027b576200027a6200021f565b5b80604052505050565b600062000290620001f5565b90506200029e82826200024e565b919050565b600067ffffffffffffffff821115620002c157620002c06200021f565b5b602082029050602081019050919050565b600080fd5b600080fd5b600067ffffffffffffffff821115620002fa57620002f96200021f565b5b62000305826200020e565b9050602081019050919050565b60005b838110156200033257808201518184015260208101905062000315565b8381111562000342576000848401525b50505050565b60006200035f6200035984620002dc565b62000284565b9050828152602081018484840111156200037e576200037d620002d7565b5b6200038b84828562000312565b509392505050565b600082601f830112620003ab57620003aa62000209565b5b8151620003bd84826020860162000348565b91505092915050565b6000620003dd620003d784620002a3565b62000284565b90508083825260208201905060208402830185811115620004035762000402620002d2565b5b835b818110156200045157805167ffffffffffffffff8111156200042c576200042b62000209565b5b8086016200043b898262000393565b8552602085019450505060208101905062000405565b5050509392505050565b600082601f83011262000473576200047262000209565b5b815162000485848260208601620003c6565b91505092915050565b600060208284031215620004a757620004a6620001ff565b5b600082015167ffffffffffffffff811115620004c857620004c762000204565b5b620004d6848285016200045b565b91505092915050565b7f4e487b7100000000000000000000000000000000000000000000000000000000600052603260045260246000fd5b7f4e487b7100000000000000000000000000000000000000000000000000000000600052601160045260246000fd5b6000819050919050565b600062000554826200053d565b91507fffffffffffffffffffffffffffffffffffffffffffffffffffffffffffffffff82036200058957620005886200050e565b5b600182019050919050565b7f4e487b7100000000000000000000000000000000000000000000000000000000600052602260045260246000fd5b60006002820490506001821680620005dc57607f821691505b602082108103620005f257620005f162000594565b5b50919050565b6118f180620006086000396000f3fe608060405234801561001057600080fd5b50600436106100cf5760003560e01c8063462e91ec1161008c57806362d73eb81161006657806362d73eb8146102035780638da5cb5b1461020d57806398c079381461022b578063f4ab9adf14610249576100cf565b8063462e91ec146101bf5780634717f97c146101db57806359f78468146101f9576100cf565b80630121b93f146100d45780632280043d146100f057806327f9fd501461010e5780632d35a8a21461013f5780633477ee2e1461015d578063442767331461018f575b600080fd5b6100ee60048036038101906100e99190610ec0565b610265565b005b6100f8610508565b6040516101059190610f64565b60405180910390f35b61012860048036038101906101239190610ec0565b61051b565b604051610136929190611027565b60405180910390f35b61014761064f565b6040516101549190611057565b60405180910390f35b61017760048036038101906101729190610ec0565b610655565b60405161018693929190611072565b60405180910390f35b6101a960048036038101906101a4919061110e565b610717565b6040516101b69190611057565b60405180910390f35b6101d960048036038101906101d49190611270565b6107da565b005b6101e361096f565b6040516101f09190611377565b60405180910390f35b610201610a33565b005b61020b610af8565b005b610215610bbd565b60405161022291906113a8565b60405180910390f35b610233610be1565b6040516102409190611057565b60405180910390f35b610263600480360381019061025e919061110e565b610be7565b005b6001600281111561027957610278610eed565b5b600060149054906101000a900460ff16600281111561029b5761029a610eed565b5b146102db576040517f08c379a00000000000000000000000000000000000000000000000000000000081526004016102d29061140f565b60405180910390fd5b600360003373ffffffffffffffffffffffffffffffffffffffff1673ffffffffffffffffffffffffffffffffffffffff16815260200190815260200160002060009054906101000a900460ff16610367576040517f08c379a000000000000000000000000000000000000000000000000000000000815260040161035e9061147b565b60405180910390fd5b600260003373ffffffffffffffffffffffffffffffffffffffff1673ffffffffffffffffffffffffffffffffffffffff16815260200190815260200160002060009054906101000a900460ff16156103f4576040517f08c379a00000000000000000000000000000000000000000000000000000000081526004016103eb906114e7565b60405180910390fd5b60008110158015610406575060045481105b610445576040517f08c379a000000000000000000000000000000000000000000000000000000000815260040161043c90611553565b60405180910390fd5b6001818154811061045957610458611573565b5b9060005260206000209060030201600201600081548092919061047b906115d1565b91905055506001600260003373ffffffffffffffffffffffffffffffffffffffff1673ffffffffffffffffffffffffffffffffffffffff16815260200190815260200160002060006101000a81548160ff021916908315150217905550807f7f511e347bf51eed3be100b3194247d5207f05f3b33de7d31e3e8ee73199a04960405160405180910390a250565b600060149054906101000a900460ff1681565b60606000808310158015610530575060045483105b61056f576040517f08c379a000000000000000000000000000000000000000000000000000000000815260040161056690611553565b60405180910390fd5b6001838154811061058357610582611573565b5b9060005260206000209060030201600101600184815481106105a8576105a7611573565b5b9060005260206000209060030201600201548180546105c690611648565b80601f01602080910402602001604051908101604052809291908181526020018280546105f290611648565b801561063f5780601f106106145761010080835404028352916020019161063f565b820191906000526020600020905b81548152906001019060200180831161062257829003601f168201915b5050505050915091509150915091565b60045481565b6001818154811061066557600080fd5b906000526020600020906003020160009150905080600001549080600101805461068e90611648565b80601f01602080910402602001604051908101604052809291908181526020018280546106ba90611648565b80156107075780601f106106dc57610100808354040283529160200191610707565b820191906000526020600020905b8154815290600101906020018083116106ea57829003601f168201915b5050505050908060020154905083565b60008173ffffffffffffffffffffffffffffffffffffffff1660008054906101000a900473ffffffffffffffffffffffffffffffffffffffff1673ffffffffffffffffffffffffffffffffffffffff160361077557600190506107d5565b600360008373ffffffffffffffffffffffffffffffffffffffff1673ffffffffffffffffffffffffffffffffffffffff16815260200190815260200160002060009054906101000a900460ff16156107d057600290506107d5565b600390505b919050565b3373ffffffffffffffffffffffffffffffffffffffff1660008054906101000a900473ffffffffffffffffffffffffffffffffffffffff1673ffffffffffffffffffffffffffffffffffffffff1614610868576040517f08c379a000000000000000000000000000000000000000000000000000000000815260040161085f906116c5565b60405180910390fd5b6000600281111561087c5761087b610eed565b5b600060149054906101000a900460ff16600281111561089e5761089d610eed565b5b146108de576040517f08c379a00000000000000000000000000000000000000000000000000000000081526004016108d590611731565b60405180910390fd5b60405180606001604052806004548152602001828152602001600081525060016004548154811061091257610911611573565b5b9060005260206000209060030201600082015181600001556020820151816001019080519060200190610946929190610dd3565b506040820151816002015590505060046000815480929190610967906115d1565b919050555050565b6060600060018054905067ffffffffffffffff81111561099257610991611145565b5b6040519080825280602002602001820160405280156109c05781602001602082028036833780820191505090505b50905060005b600180549050811015610a2b57600181815481106109e7576109e6611573565b5b906000526020600020906003020160020154828281518110610a0c57610a0b611573565b5b6020026020010181815250508080610a23906115d1565b9150506109c6565b508091505090565b60008054906101000a900473ffffffffffffffffffffffffffffffffffffffff1673ffffffffffffffffffffffffffffffffffffffff163373ffffffffffffffffffffffffffffffffffffffff1614610a8b57600080fd5b60016002811115610a9f57610a9e610eed565b5b600060149054906101000a900460ff166002811115610ac157610ac0610eed565b5b14610acb57600080fd5b6002600060146101000a81548160ff02191690836002811115610af157610af0610eed565b5b0217905550565b60008054906101000a900473ffffffffffffffffffffffffffffffffffffffff1673ffffffffffffffffffffffffffffffffffffffff163373ffffffffffffffffffffffffffffffffffffffff1614610b5057600080fd5b60006002811115610b6457610b63610eed565b5b600060149054906101000a900460ff166002811115610b8657610b85610eed565b5b14610b9057600080fd5b6001600060146101000a81548160ff02191690836002811115610bb657610bb5610eed565b5b0217905550565b60008054906101000a900473ffffffffffffffffffffffffffffffffffffffff1681565b60055481565b3373ffffffffffffffffffffffffffffffffffffffff1660008054906101000a900473ffffffffffffffffffffffffffffffffffffffff1673ffffffffffffffffffffffffffffffffffffffff1614610c75576040517f08c379a0000000000000000000000000000000000000000000000000000000008152600401610c6c9061179d565b60405180910390fd5b600360008273ffffffffffffffffffffffffffffffffffffffff1673ffffffffffffffffffffffffffffffffffffffff16815260200190815260200160002060009054906101000a900460ff1615610d02576040517f08c379a0000000000000000000000000000000000000000000000000000000008152600401610cf990611809565b60405180910390fd5b60006002811115610d1657610d15610eed565b5b600060149054906101000a900460ff166002811115610d3857610d37610eed565b5b14610d78576040517f08c379a0000000000000000000000000000000000000000000000000000000008152600401610d6f9061189b565b60405180910390fd5b6001600360008373ffffffffffffffffffffffffffffffffffffffff1673ffffffffffffffffffffffffffffffffffffffff16815260200190815260200160002060006101000a81548160ff02191690831515021790555050565b828054610ddf90611648565b90600052602060002090601f016020900481019282610e015760008555610e48565b82601f10610e1a57805160ff1916838001178555610e48565b82800160010185558215610e48579182015b82811115610e47578251825591602001919060010190610e2c565b5b509050610e559190610e59565b5090565b5b80821115610e72576000816000905550600101610e5a565b5090565b6000604051905090565b600080fd5b600080fd5b6000819050919050565b610e9d81610e8a565b8114610ea857600080fd5b50565b600081359050610eba81610e94565b92915050565b600060208284031215610ed657610ed5610e80565b5b6000610ee484828501610eab565b91505092915050565b7f4e487b7100000000000000000000000000000000000000000000000000000000600052602160045260246000fd5b60038110610f2d57610f2c610eed565b5b50565b6000819050610f3e82610f1c565b919050565b6000610f4e82610f30565b9050919050565b610f5e81610f43565b82525050565b6000602082019050610f796000830184610f55565b92915050565b600081519050919050565b600082825260208201905092915050565b60005b83811015610fb9578082015181840152602081019050610f9e565b83811115610fc8576000848401525b50505050565b6000601f19601f8301169050919050565b6000610fea82610f7f565b610ff48185610f8a565b9350611004818560208601610f9b565b61100d81610fce565b840191505092915050565b61102181610e8a565b82525050565b600060408201905081810360008301526110418185610fdf565b90506110506020830184611018565b9392505050565b600060208201905061106c6000830184611018565b92915050565b60006060820190506110876000830186611018565b81810360208301526110998185610fdf565b90506110a86040830184611018565b949350505050565b600073ffffffffffffffffffffffffffffffffffffffff82169050919050565b60006110db826110b0565b9050919050565b6110eb816110d0565b81146110f657600080fd5b50565b600081359050611108816110e2565b92915050565b60006020828403121561112457611123610e80565b5b6000611132848285016110f9565b91505092915050565b600080fd5b600080fd5b7f4e487b7100000000000000000000000000000000000000000000000000000000600052604160045260246000fd5b61117d82610fce565b810181811067ffffffffffffffff8211171561119c5761119b611145565b5b80604052505050565b60006111af610e76565b90506111bb8282611174565b919050565b600067ffffffffffffffff8211156111db576111da611145565b5b6111e482610fce565b9050602081019050919050565b82818337600083830152505050565b600061121361120e846111c0565b6111a5565b90508281526020810184848401111561122f5761122e611140565b5b61123a8482856111f1565b509392505050565b600082601f8301126112575761125661113b565b5b8135611267848260208601611200565b91505092915050565b60006020828403121561128657611285610e80565b5b600082013567ffffffffffffffff8111156112a4576112a3610e85565b5b6112b084828501611242565b91505092915050565b600081519050919050565b600082825260208201905092915050565b6000819050602082019050919050565b6112ee81610e8a565b82525050565b600061130083836112e5565b60208301905092915050565b6000602082019050919050565b6000611324826112b9565b61132e81856112c4565b9350611339836112d5565b8060005b8381101561136a57815161135188826112f4565b975061135c8361130c565b92505060018101905061133d565b5085935050505092915050565b600060208201905081810360008301526113918184611319565b905092915050565b6113a2816110d0565b82525050565b60006020820190506113bd6000830184611399565b92915050565b7f456c656374696f6e206973206e6f7420696e2070726f67726573730000000000600082015250565b60006113f9601b83610f8a565b9150611404826113c3565b602082019050919050565b60006020820190508181036000830152611428816113ec565b9050919050565b7f4e6f6e20617574686f726973656420757365722063616e6e6f7420766f746500600082015250565b6000611465601f83610f8a565b91506114708261142f565b602082019050919050565b6000602082019050818103600083015261149481611458565b9050919050565b7f596f75206861766520616c726561647920766f74656400000000000000000000600082015250565b60006114d1601683610f8a565b91506114dc8261149b565b602082019050919050565b60006020820190508181036000830152611500816114c4565b9050919050565b7f496e76616c69642063616e646964617465204944000000000000000000000000600082015250565b600061153d601483610f8a565b915061154882611507565b602082019050919050565b6000602082019050818103600083015261156c81611530565b9050919050565b7f4e487b7100000000000000000000000000000000000000000000000000000000600052603260045260246000fd5b7f4e487b7100000000000000000000000000000000000000000000000000000000600052601160045260246000fd5b60006115dc82610e8a565b91507fffffffffffffffffffffffffffffffffffffffffffffffffffffffffffffffff820361160e5761160d6115a2565b5b600182019050919050565b7f4e487b7100000000000000000000000000000000000000000000000000000000600052602260045260246000fd5b6000600282049050600182168061166057607f821691505b60208210810361167357611672611619565b5b50919050565b7f4f6e6c79206f776e65722063616e206164642063616e64696461746573000000600082015250565b60006116af601d83610f8a565b91506116ba82611679565b602082019050919050565b600060208201905081810360008301526116de816116a2565b9050919050565b7f456c656374696f6e2068617320616c7265616479207374617274656400000000600082015250565b600061171b601c83610f8a565b9150611726826116e5565b602082019050919050565b6000602082019050818103600083015261174a8161170e565b9050919050565b7f4f6e6c79206f776e65722063616e2061646420766f7465720000000000000000600082015250565b6000611787601883610f8a565b915061179282611751565b602082019050919050565b600060208201905081810360008301526117b68161177a565b9050919050565b7f566f74657220616c726561647920616464656400000000000000000000000000600082015250565b60006117f3601383610f8a565b91506117fe826117bd565b602082019050919050565b60006020820190508181036000830152611822816117e6565b9050919050565b7f566f7465722063616e277420626520616464656420616674657220656c65637460008201527f696f6e2073746172746564000000000000000000000000000000000000000000602082015250565b6000611885602b83610f8a565b915061189082611829565b604082019050919050565b600060208201905081810360008301526118b481611878565b905091905056fea2646970667358221220641b75dc144299299ef166800b7fb7167ac2ea7fa9205baffc6f1c03bbf2c8e664736f6c634300080e0033",
  "immutableReferences": {},
  "source": "// SPDX-License-Identifier: MIT\r\npragma solidity >=0.4.0 <0.9.0;\r\n\r\ncontract Election {\r\n    enum State {\r\n        NotStarted,\r\n        InProgress,\r\n        Ended\r\n    }\r\n\r\n    struct Candidate {\r\n        uint256 id;\r\n        string name;\r\n        uint256 voteCount;\r\n    }\r\n\r\n    address public owner;\r\n    State public electionState;\r\n\r\n    struct Voter {\r\n        uint256 id;\r\n        string name;\r\n    }\r\n\r\n    Candidate[] public candidates;\r\n    mapping(address => bool) voted;\r\n\r\n    mapping(address => bool) isVoter;\r\n\r\n    uint256 public candidatesCount = 0;\r\n\r\n    uint256 public votersCount = 0;\r\n\r\n    constructor(string[] memory candidateNames) {\r\n        owner = msg.sender;\r\n        for (uint i = 0; i < candidateNames.length; i++) {\r\n            candidates.push(Candidate(i, candidateNames[i], 0));\r\n        }\r\n    }\r\n    event Voted(uint256 indexed _candidateId);\r\n\r\n    function startElection() public {\r\n        require(msg.sender == owner);\r\n        require(electionState == State.NotStarted);\r\n        electionState = State.InProgress;\r\n    }\r\n\r\n    function endElection() public {\r\n        require(msg.sender == owner);\r\n        require(electionState == State.InProgress);\r\n        electionState = State.Ended;\r\n    }\r\n\r\n    function addCandidate(string memory _name) public {\r\n        require(owner == msg.sender, \"Only owner can add candidates\");\r\n        require(\r\n            electionState == State.NotStarted,\r\n            \"Election has already started\"\r\n        );\r\n\r\n        candidates[candidatesCount] = Candidate(candidatesCount, _name, 0);\r\n        candidatesCount++;\r\n    }\r\n\r\n    function addVoter(address _voter) public {\r\n        require(owner == msg.sender, \"Only owner can add voter\");\r\n        require(!isVoter[_voter], \"Voter already added\");\r\n        require(\r\n            electionState == State.NotStarted,\r\n            \"Voter can't be added after election started\"\r\n        );\r\n\r\n        isVoter[_voter] = true;\r\n    }\r\n\r\n    function getRole(address _current) public view returns (uint256) {\r\n        if (owner == _current) {\r\n            return 1;\r\n        } else if (isVoter[_current]) {\r\n            return 2;\r\n        } else {\r\n            return 3;\r\n        }\r\n    }\r\n\r\n    function vote(uint256 _candidateId) public {\r\n        require(\r\n            electionState == State.InProgress,\r\n            \"Election is not in progress\"\r\n        );\r\n        require(isVoter[msg.sender], \"Non authorised user cannot vote\");\r\n        require(!voted[msg.sender], \"You have already voted\");\r\n        require(\r\n            _candidateId >= 0 && _candidateId < candidatesCount,\r\n            \"Invalid candidate ID\"\r\n        );\r\n\r\n        candidates[_candidateId].voteCount++;\r\n        voted[msg.sender] = true;\r\n\r\n        emit Voted(_candidateId);\r\n    }\r\n\r\n    function getCandidateDetails(\r\n        uint256 _candidateId\r\n    ) public view returns (string memory, uint256) {\r\n        require(\r\n            _candidateId >= 0 && _candidateId < candidatesCount,\r\n            \"Invalid candidate ID\"\r\n        );\r\n        return (\r\n            candidates[_candidateId].name,\r\n            candidates[_candidateId].voteCount\r\n        );\r\n    }\r\n    //updated\r\n    function getResults() public view returns (uint256[] memory) {\r\n        uint256[] memory results = new uint256[](candidates.length);\r\n        for (uint i = 0; i < candidates.length; i++) {\r\n            results[i] = candidates[i].voteCount;\r\n        }\r\n        return results;\r\n    }\r\n}\r\n",
  "sourcePath": "C:\\Users\\Satkrit\\OneDrive\\Desktop\\Voting System\\voting-dapp\\contracts\\Voting.sol",
  "compiler": {
    "name": "solc",
    "version": "0.8.14+commit.80d49f37.Emscripten.clang"
  },
  "schemaVersion": "3.4.16",
  "updatedAt": "2025-04-27T12:00:49.628Z",
  "devdoc": {
    "kind": "dev",
    "methods": {},
    "version": 1
  },
  "userdoc": {
    "kind": "user",
    "methods": {},
    "version": 1
  }
}