{
  "contractName": "MainAggregator",
  "abi": [
    {
      "inputs": [
        {
          "internalType": "address[]",
          "name": "shardAddresses",
          "type": "address[]"
        },
        {
          "internalType": "address",
          "name": "_owner",
          "type": "address"
        }
      ],
      "stateMutability": "nonpayable",
      "type": "constructor"
    },
    {
      "anonymous": false,
      "inputs": [
        {
          "indexed": true,
          "internalType": "address",
          "name": "previousOwner",
          "type": "address"
        },
        {
          "indexed": true,
          "internalType": "address",
          "name": "newOwner",
          "type": "address"
        }
      ],
      "name": "OwnershipTransferred",
      "type": "event"
    },
    {
      "inputs": [],
      "name": "owner",
      "outputs": [
        {
          "internalType": "address",
          "name": "",
          "type": "address"
        }
      ],
      "stateMutability": "view",
      "type": "function",
      "constant": true
    },
    {
      "inputs": [
        {
          "internalType": "uint256",
          "name": "",
          "type": "uint256"
        }
      ],
      "name": "shards",
      "outputs": [
        {
          "internalType": "address",
          "name": "",
          "type": "address"
        }
      ],
      "stateMutability": "view",
      "type": "function",
      "constant": true
    },
    {
      "inputs": [
        {
          "internalType": "address",
          "name": "newOwner",
          "type": "address"
        }
      ],
      "name": "transferOwnership",
      "outputs": [],
      "stateMutability": "nonpayable",
      "type": "function"
    },
    {
      "inputs": [
        {
          "internalType": "address",
          "name": "shardAddress",
          "type": "address"
        }
      ],
      "name": "addShard",
      "outputs": [],
      "stateMutability": "nonpayable",
      "type": "function"
    },
    {
      "inputs": [],
      "name": "aggregateResults",
      "outputs": [
        {
          "internalType": "uint256[]",
          "name": "",
          "type": "uint256[]"
        }
      ],
      "stateMutability": "view",
      "type": "function",
      "constant": true
    }
  ],
  "bytecode": "0x60806040523480156200001157600080fd5b50604051620010c6380380620010c6833981810160405281019062000037919062000334565b806000806101000a81548173ffffffffffffffffffffffffffffffffffffffff021916908373ffffffffffffffffffffffffffffffffffffffff16021790555081600190805190602001906200008f92919062000098565b5050506200039a565b82805482825590600052602060002090810192821562000114579160200282015b82811115620001135782518260006101000a81548173ffffffffffffffffffffffffffffffffffffffff021916908373ffffffffffffffffffffffffffffffffffffffff16021790555091602001919060010190620000b9565b5b50905062000123919062000127565b5090565b5b808211156200014257600081600090555060010162000128565b5090565b6000604051905090565b600080fd5b600080fd5b600080fd5b6000601f19601f8301169050919050565b7f4e487b7100000000000000000000000000000000000000000000000000000000600052604160045260246000fd5b620001aa826200015f565b810181811067ffffffffffffffff82111715620001cc57620001cb62000170565b5b80604052505050565b6000620001e162000146565b9050620001ef82826200019f565b919050565b600067ffffffffffffffff82111562000212576200021162000170565b5b602082029050602081019050919050565b600080fd5b600073ffffffffffffffffffffffffffffffffffffffff82169050919050565b6000620002558262000228565b9050919050565b620002678162000248565b81146200027357600080fd5b50565b60008151905062000287816200025c565b92915050565b6000620002a46200029e84620001f4565b620001d5565b90508083825260208201905060208402830185811115620002ca57620002c962000223565b5b835b81811015620002f75780620002e2888262000276565b845260208401935050602081019050620002cc565b5050509392505050565b600082601f8301126200031957620003186200015a565b5b81516200032b8482602086016200028d565b91505092915050565b600080604083850312156200034e576200034d62000150565b5b600083015167ffffffffffffffff8111156200036f576200036e62000155565b5b6200037d8582860162000301565b9250506020620003908582860162000276565b9150509250929050565b610d1c80620003aa6000396000f3fe608060405234801561001057600080fd5b50600436106100575760003560e01c806316faae901461005c57806329c38e9b1461008c5780633c30dc75146100aa5780638da5cb5b146100c6578063f2fde38b146100e4575b600080fd5b610076600480360381019061007191906106f6565b610100565b6040516100839190610764565b60405180910390f35b61009461013f565b6040516100a1919061083d565b60405180910390f35b6100c460048036038101906100bf919061088b565b6103da565b005b6100ce6104ce565b6040516100db9190610764565b60405180910390f35b6100fe60048036038101906100f9919061088b565b6104f2565b005b6001818154811061011057600080fd5b906000526020600020016000915054906101000a900473ffffffffffffffffffffffffffffffffffffffff1681565b6060600060018054905011610189576040517f08c379a000000000000000000000000000000000000000000000000000000000815260040161018090610915565b60405180910390fd5b600060016000815481106101a05761019f610935565b5b9060005260206000200160009054906101000a900473ffffffffffffffffffffffffffffffffffffffff1673ffffffffffffffffffffffffffffffffffffffff16634717f97c6040518163ffffffff1660e01b8152600401600060405180830381865afa158015610215573d6000803e3d6000fd5b505050506040513d6000823e3d601f19601f8201168201806040525081019061023e9190610ad2565b51905060008167ffffffffffffffff81111561025d5761025c61097a565b5b60405190808252806020026020018201604052801561028b5781602001602082028036833780820191505090505b50905060005b6001805490508110156103d1576000600182815481106102b4576102b3610935565b5b9060005260206000200160009054906101000a900473ffffffffffffffffffffffffffffffffffffffff1673ffffffffffffffffffffffffffffffffffffffff16634717f97c6040518163ffffffff1660e01b8152600401600060405180830381865afa158015610329573d6000803e3d6000fd5b505050506040513d6000823e3d601f19601f820116820180604052508101906103529190610ad2565b905060005b81518110156103bc5781818151811061037357610372610935565b5b602002602001015184828151811061038e5761038d610935565b5b602002602001018181516103a29190610b4a565b9150818152505080806103b490610ba0565b915050610357565b505080806103c990610ba0565b915050610291565b50809250505090565b60008054906101000a900473ffffffffffffffffffffffffffffffffffffffff1673ffffffffffffffffffffffffffffffffffffffff163373ffffffffffffffffffffffffffffffffffffffff1614610468576040517f08c379a000000000000000000000000000000000000000000000000000000000815260040161045f90610c5a565b60405180910390fd5b6001819080600181540180825580915050600190039060005260206000200160009091909190916101000a81548173ffffffffffffffffffffffffffffffffffffffff021916908373ffffffffffffffffffffffffffffffffffffffff16021790555050565b60008054906101000a900473ffffffffffffffffffffffffffffffffffffffff1681565b60008054906101000a900473ffffffffffffffffffffffffffffffffffffffff1673ffffffffffffffffffffffffffffffffffffffff163373ffffffffffffffffffffffffffffffffffffffff1614610580576040517f08c379a000000000000000000000000000000000000000000000000000000000815260040161057790610c5a565b60405180910390fd5b600073ffffffffffffffffffffffffffffffffffffffff168173ffffffffffffffffffffffffffffffffffffffff16036105ef576040517f08c379a00000000000000000000000000000000000000000000000000000000081526004016105e690610cc6565b60405180910390fd5b8073ffffffffffffffffffffffffffffffffffffffff1660008054906101000a900473ffffffffffffffffffffffffffffffffffffffff1673ffffffffffffffffffffffffffffffffffffffff167f8be0079c531659141344cd1fd0a4f28419497f9722a3daafe3b4186f6b6457e060405160405180910390a3806000806101000a81548173ffffffffffffffffffffffffffffffffffffffff021916908373ffffffffffffffffffffffffffffffffffffffff16021790555050565b6000604051905090565b600080fd5b600080fd5b6000819050919050565b6106d3816106c0565b81146106de57600080fd5b50565b6000813590506106f0816106ca565b92915050565b60006020828403121561070c5761070b6106b6565b5b600061071a848285016106e1565b91505092915050565b600073ffffffffffffffffffffffffffffffffffffffff82169050919050565b600061074e82610723565b9050919050565b61075e81610743565b82525050565b60006020820190506107796000830184610755565b92915050565b600081519050919050565b600082825260208201905092915050565b6000819050602082019050919050565b6107b4816106c0565b82525050565b60006107c683836107ab565b60208301905092915050565b6000602082019050919050565b60006107ea8261077f565b6107f4818561078a565b93506107ff8361079b565b8060005b8381101561083057815161081788826107ba565b9750610822836107d2565b925050600181019050610803565b5085935050505092915050565b6000602082019050818103600083015261085781846107df565b905092915050565b61086881610743565b811461087357600080fd5b50565b6000813590506108858161085f565b92915050565b6000602082840312156108a1576108a06106b6565b5b60006108af84828501610876565b91505092915050565b600082825260208201905092915050565b7f4e6f2073686172647320617661696c61626c6500000000000000000000000000600082015250565b60006108ff6013836108b8565b915061090a826108c9565b602082019050919050565b6000602082019050818103600083015261092e816108f2565b9050919050565b7f4e487b7100000000000000000000000000000000000000000000000000000000600052603260045260246000fd5b600080fd5b6000601f19601f8301169050919050565b7f4e487b7100000000000000000000000000000000000000000000000000000000600052604160045260246000fd5b6109b282610969565b810181811067ffffffffffffffff821117156109d1576109d061097a565b5b80604052505050565b60006109e46106ac565b90506109f082826109a9565b919050565b600067ffffffffffffffff821115610a1057610a0f61097a565b5b602082029050602081019050919050565b600080fd5b600081519050610a35816106ca565b92915050565b6000610a4e610a49846109f5565b6109da565b90508083825260208201905060208402830185811115610a7157610a70610a21565b5b835b81811015610a9a5780610a868882610a26565b845260208401935050602081019050610a73565b5050509392505050565b600082601f830112610ab957610ab8610964565b5b8151610ac9848260208601610a3b565b91505092915050565b600060208284031215610ae857610ae76106b6565b5b600082015167ffffffffffffffff811115610b0657610b056106bb565b5b610b1284828501610aa4565b91505092915050565b7f4e487b7100000000000000000000000000000000000000000000000000000000600052601160045260246000fd5b6000610b55826106c0565b9150610b60836106c0565b9250827fffffffffffffffffffffffffffffffffffffffffffffffffffffffffffffffff03821115610b9557610b94610b1b565b5b828201905092915050565b6000610bab826106c0565b91507fffffffffffffffffffffffffffffffffffffffffffffffffffffffffffffffff8203610bdd57610bdc610b1b565b5b600182019050919050565b7f4f6e6c79206f776e65722063616e2063616c6c20746869732066756e6374696f60008201527f6e00000000000000000000000000000000000000000000000000000000000000602082015250565b6000610c446021836108b8565b9150610c4f82610be8565b604082019050919050565b60006020820190508181036000830152610c7381610c37565b9050919050565b7f4e6577206f776e65722063616e6e6f74206265207a65726f2061646472657373600082015250565b6000610cb06020836108b8565b9150610cbb82610c7a565b602082019050919050565b60006020820190508181036000830152610cdf81610ca3565b905091905056fea2646970667358221220f80917dbcee87a536a10de6f232055c5c42774811beccf3d1779a2e3fc239d0b64736f6c634300080e0033",
  "immutableReferences": {},
  "source": "// SPDX-License-Identifier: MIT\r\npragma solidity ^0.8.0;\r\n\r\n//updated\r\ninterface IShardVoting {\r\n    function getResults() external view returns (uint256[] memory);\r\n}\r\n\r\ncontract MainAggregator {\r\n    address public owner;\r\n    address[] public shards;\r\n\r\n    event OwnershipTransferred(address indexed previousOwner, address indexed newOwner);\r\n\r\n    modifier onlyOwner() {\r\n        require(msg.sender == owner, \"Only owner can call this function\");\r\n        _;\r\n    }\r\n\r\n    constructor(address[] memory shardAddresses, address _owner) {\r\n        owner = _owner;\r\n        shards = shardAddresses;\r\n    }\r\n\r\n    function transferOwnership(address newOwner) public onlyOwner {\r\n        require(newOwner != address(0), \"New owner cannot be zero address\");\r\n        emit OwnershipTransferred(owner, newOwner);\r\n        owner = newOwner;\r\n    }\r\n\r\n    function addShard(address shardAddress) public onlyOwner {\r\n        shards.push(shardAddress);\r\n    }\r\n\r\n    function aggregateResults() public view returns (uint256[] memory) {\r\n        require(shards.length > 0, \"No shards available\");\r\n        uint256 numCandidates = IShardVoting(shards[0]).getResults().length;\r\n        uint256[] memory aggregatedResults = new uint256[](numCandidates);\r\n\r\n        for (uint i = 0; i < shards.length; i++) {\r\n            uint256[] memory shardResults = IShardVoting(shards[i])\r\n                .getResults();\r\n            for (uint j = 0; j < shardResults.length; j++) {\r\n                aggregatedResults[j] += shardResults[j];\r\n            }\r\n        }\r\n        return aggregatedResults;\r\n    }\r\n}\r\n",
  "sourcePath": "C:\\Users\\Satkrit\\OneDrive\\Desktop\\Voting System\\voting-dapp\\contracts\\MainAggregator.sol",
  "compiler": {
    "name": "solc",
    "version": "0.8.14+commit.80d49f37.Emscripten.clang"
  },
  "schemaVersion": "3.4.16",
  "updatedAt": "2025-04-27T12:00:53.483Z",
  "networkType": "ethereum",
  "devdoc": {
    "kind": "dev",
    "methods": {},
    "version": 1
  },
  "userdoc": {
    "kind": "user",
    "methods": {},
    "version": 1
  }
}