{
  "contractName": "RegionDeployment",
  "abi": [
    {
      "inputs": [
        {
          "internalType": "string[][]",
          "name": "regionCandidates",
          "type": "string[][]"
        }
      ],
      "stateMutability": "nonpayable",
      "type": "constructor"
    },
    {
      "inputs": [],
      "name": "aggregator",
      "outputs": [
        {
          "internalType": "contract MainAggregator",
          "name": "",
          "type": "address"
        }
      ],
      "stateMutability": "view",
      "type": "function",
      "constant": true
    },
    {
      "inputs": [],
      "name": "owner",
      "outputs": [
        {
          "internalType": "address",
          "name": "",
          "type": "address"
        }
      ],
      "stateMutability": "view",
      "type": "function",
      "constant": true
    },
    {
      "inputs": [
        {
          "internalType": "uint256",
          "name": "",
          "type": "uint256"
        }
      ],
      "name": "shards",
      "outputs": [
        {
          "internalType": "contract ShardVoting",
          "name": "",
          "type": "address"
        }
      ],
      "stateMutability": "view",
      "type": "function",
      "constant": true
    },
    {
      "inputs": [
        {
          "internalType": "address",
          "name": "shardAddress",
          "type": "address"
        }
      ],
      "name": "addShard",
      "outputs": [],
      "stateMutability": "nonpayable",
      "type": "function"
    },
    {
      "inputs": [],
      "name": "getShardCount",
      "outputs": [
        {
          "internalType": "uint256",
          "name": "",
          "type": "uint256"
        }
      ],
      "stateMutability": "view",
      "type": "function",
      "constant": true
    }
  ],
  "bytecode": "0x60806040523480156200001157600080fd5b5060405162003d4138038062003d4183398181016040528101906200003791906200062d565b336000806101000a81548173ffffffffffffffffffffffffffffffffffffffff021916908373ffffffffffffffffffffffffffffffffffffffff1602179055506000815167ffffffffffffffff811115620000975762000096620002c7565b5b604051908082528060200260200182016040528015620000c65781602001602082028036833780820191505090505b50905060005b8251811015620001fd576000838281518110620000ee57620000ed6200067e565b5b602002602001015133604051620001059062000281565b620001129291906200081f565b604051809103906000f0801580156200012f573d6000803e3d6000fd5b5090506001819080600181540180825580915050600190039060005260206000200160009091909190916101000a81548173ffffffffffffffffffffffffffffffffffffffff021916908373ffffffffffffffffffffffffffffffffffffffff16021790555080838381518110620001ac57620001ab6200067e565b5b602002602001019073ffffffffffffffffffffffffffffffffffffffff16908173ffffffffffffffffffffffffffffffffffffffff1681525050508080620001f4906200088c565b915050620000cc565b5080336040516200020e906200028f565b6200021b929190620009a7565b604051809103906000f08015801562000238573d6000803e3d6000fd5b50600260006101000a81548173ffffffffffffffffffffffffffffffffffffffff021916908373ffffffffffffffffffffffffffffffffffffffff1602179055505050620009db565b611d2e8062000f4d83390190565b6110c68062002c7b83390190565b6000604051905090565b600080fd5b600080fd5b600080fd5b6000601f19601f8301169050919050565b7f4e487b7100000000000000000000000000000000000000000000000000000000600052604160045260246000fd5b6200030182620002b6565b810181811067ffffffffffffffff82111715620003235762000322620002c7565b5b80604052505050565b6000620003386200029d565b9050620003468282620002f6565b919050565b600067ffffffffffffffff821115620003695762000368620002c7565b5b602082029050602081019050919050565b600080fd5b600067ffffffffffffffff8211156200039d576200039c620002c7565b5b602082029050602081019050919050565b600080fd5b600067ffffffffffffffff821115620003d157620003d0620002c7565b5b620003dc82620002b6565b9050602081019050919050565b60005b8381101562000409578082015181840152602081019050620003ec565b8381111562000419576000848401525b50505050565b6000620004366200043084620003b3565b6200032c565b905082815260208101848484011115620004555762000454620003ae565b5b62000462848285620003e9565b509392505050565b600082601f830112620004825762000481620002b1565b5b8151620004948482602086016200041f565b91505092915050565b6000620004b4620004ae846200037f565b6200032c565b90508083825260208201905060208402830185811115620004da57620004d96200037a565b5b835b818110156200052857805167ffffffffffffffff811115620005035762000502620002b1565b5b8086016200051289826200046a565b85526020850194505050602081019050620004dc565b5050509392505050565b600082601f8301126200054a5762000549620002b1565b5b81516200055c8482602086016200049d565b91505092915050565b60006200057c62000576846200034b565b6200032c565b90508083825260208201905060208402830185811115620005a257620005a16200037a565b5b835b81811015620005f057805167ffffffffffffffff811115620005cb57620005ca620002b1565b5b808601620005da898262000532565b85526020850194505050602081019050620005a4565b5050509392505050565b600082601f830112620006125762000611620002b1565b5b81516200062484826020860162000565565b91505092915050565b600060208284031215620006465762000645620002a7565b5b600082015167ffffffffffffffff811115620006675762000666620002ac565b5b6200067584828501620005fa565b91505092915050565b7f4e487b7100000000000000000000000000000000000000000000000000000000600052603260045260246000fd5b600081519050919050565b600082825260208201905092915050565b6000819050602082019050919050565b600081519050919050565b600082825260208201905092915050565b60006200070282620006d9565b6200070e8185620006e4565b935062000720818560208601620003e9565b6200072b81620002b6565b840191505092915050565b6000620007448383620006f5565b905092915050565b6000602082019050919050565b60006200076682620006ad565b620007728185620006b8565b9350836020820285016200078685620006c9565b8060005b85811015620007c85784840389528151620007a6858262000736565b9450620007b3836200074c565b925060208a019950506001810190506200078a565b50829750879550505050505092915050565b600073ffffffffffffffffffffffffffffffffffffffff82169050919050565b60006200080782620007da565b9050919050565b6200081981620007fa565b82525050565b600060408201905081810360008301526200083b818562000759565b90506200084c60208301846200080e565b9392505050565b7f4e487b7100000000000000000000000000000000000000000000000000000000600052601160045260246000fd5b6000819050919050565b6000620008998262000882565b91507fffffffffffffffffffffffffffffffffffffffffffffffffffffffffffffffff8203620008ce57620008cd62000853565b5b600182019050919050565b600081519050919050565b600082825260208201905092915050565b6000819050602082019050919050565b6200091081620007fa565b82525050565b600062000924838362000905565b60208301905092915050565b6000602082019050919050565b60006200094a82620008d9565b620009568185620008e4565b93506200096383620008f5565b8060005b838110156200099a5781516200097e888262000916565b97506200098b8362000930565b92505060018101905062000967565b5085935050505092915050565b60006040820190508181036000830152620009c381856200093d565b9050620009d460208301846200080e565b9392505050565b61056280620009eb6000396000f3fe608060405234801561001057600080fd5b50600436106100575760003560e01c806316faae901461005c578063245a7bfc1461008c5780633c30dc75146100aa5780636773042b146100c65780638da5cb5b146100e4575b600080fd5b610076600480360381019061007191906102c7565b610102565b6040516100839190610373565b60405180910390f35b610094610141565b6040516100a191906103af565b60405180910390f35b6100c460048036038101906100bf9190610408565b610167565b005b6100ce61025b565b6040516100db9190610444565b60405180910390f35b6100ec610268565b6040516100f9919061046e565b60405180910390f35b6001818154811061011257600080fd5b906000526020600020016000915054906101000a900473ffffffffffffffffffffffffffffffffffffffff1681565b600260009054906101000a900473ffffffffffffffffffffffffffffffffffffffff1681565b60008054906101000a900473ffffffffffffffffffffffffffffffffffffffff1673ffffffffffffffffffffffffffffffffffffffff163373ffffffffffffffffffffffffffffffffffffffff16146101f5576040517f08c379a00000000000000000000000000000000000000000000000000000000081526004016101ec9061050c565b60405180910390fd5b6001819080600181540180825580915050600190039060005260206000200160009091909190916101000a81548173ffffffffffffffffffffffffffffffffffffffff021916908373ffffffffffffffffffffffffffffffffffffffff16021790555050565b6000600180549050905090565b60008054906101000a900473ffffffffffffffffffffffffffffffffffffffff1681565b600080fd5b6000819050919050565b6102a481610291565b81146102af57600080fd5b50565b6000813590506102c18161029b565b92915050565b6000602082840312156102dd576102dc61028c565b5b60006102eb848285016102b2565b91505092915050565b600073ffffffffffffffffffffffffffffffffffffffff82169050919050565b6000819050919050565b600061033961033461032f846102f4565b610314565b6102f4565b9050919050565b600061034b8261031e565b9050919050565b600061035d82610340565b9050919050565b61036d81610352565b82525050565b60006020820190506103886000830184610364565b92915050565b600061039982610340565b9050919050565b6103a98161038e565b82525050565b60006020820190506103c460008301846103a0565b92915050565b60006103d5826102f4565b9050919050565b6103e5816103ca565b81146103f057600080fd5b50565b600081359050610402816103dc565b92915050565b60006020828403121561041e5761041d61028c565b5b600061042c848285016103f3565b91505092915050565b61043e81610291565b82525050565b60006020820190506104596000830184610435565b92915050565b610468816103ca565b82525050565b6000602082019050610483600083018461045f565b92915050565b600082825260208201905092915050565b7f4f6e6c79206f776e65722063616e2063616c6c20746869732066756e6374696f60008201527f6e00000000000000000000000000000000000000000000000000000000000000602082015250565b60006104f6602183610489565b91506105018261049a565b604082019050919050565b60006020820190508181036000830152610525816104e9565b905091905056fea264697066735822122051ed127a92b8fd41e90c4519721649857511adacea9d69d5f96d2600cccfee7f64736f6c634300080e003360806040526000600360006101000a81548160ff0219169083151502179055506000600360016101000a81548160ff0219169083151502179055503480156200004757600080fd5b5060405162001d2e38038062001d2e83398181016040528101906200006d919062000520565b806000806101000a81548173ffffffffffffffffffffffffffffffffffffffff021916908373ffffffffffffffffffffffffffffffffffffffff16021790555060005b8251811015620001695760026040518060600160405280838152602001858481518110620000e357620000e262000586565b5b60200260200101518152602001600081525090806001815401808255809150506001900390600052602060002090600302016000909190919091506000820151816000015560208201518160010190805190602001906200014692919062000172565b5060408201518160020155505080806200016090620005ee565b915050620000b0565b5050506200069f565b82805462000180906200066a565b90600052602060002090601f016020900481019282620001a45760008555620001f0565b82601f10620001bf57805160ff1916838001178555620001f0565b82800160010185558215620001f0579182015b82811115620001ef578251825591602001919060010190620001d2565b5b509050620001ff919062000203565b5090565b5b808211156200021e57600081600090555060010162000204565b5090565b6000604051905090565b600080fd5b600080fd5b600080fd5b6000601f19601f8301169050919050565b7f4e487b7100000000000000000000000000000000000000000000000000000000600052604160045260246000fd5b62000286826200023b565b810181811067ffffffffffffffff82111715620002a857620002a76200024c565b5b80604052505050565b6000620002bd62000222565b9050620002cb82826200027b565b919050565b600067ffffffffffffffff821115620002ee57620002ed6200024c565b5b602082029050602081019050919050565b600080fd5b600080fd5b600067ffffffffffffffff8211156200032757620003266200024c565b5b62000332826200023b565b9050602081019050919050565b60005b838110156200035f57808201518184015260208101905062000342565b838111156200036f576000848401525b50505050565b60006200038c620003868462000309565b620002b1565b905082815260208101848484011115620003ab57620003aa62000304565b5b620003b88482856200033f565b509392505050565b600082601f830112620003d857620003d762000236565b5b8151620003ea84826020860162000375565b91505092915050565b60006200040a6200040484620002d0565b620002b1565b9050808382526020820190506020840283018581111562000430576200042f620002ff565b5b835b818110156200047e57805167ffffffffffffffff81111562000459576200045862000236565b5b808601620004688982620003c0565b8552602085019450505060208101905062000432565b5050509392505050565b600082601f830112620004a0576200049f62000236565b5b8151620004b2848260208601620003f3565b91505092915050565b600073ffffffffffffffffffffffffffffffffffffffff82169050919050565b6000620004e882620004bb565b9050919050565b620004fa81620004db565b81146200050657600080fd5b50565b6000815190506200051a81620004ef565b92915050565b600080604083850312156200053a57620005396200022c565b5b600083015167ffffffffffffffff8111156200055b576200055a62000231565b5b620005698582860162000488565b92505060206200057c8582860162000509565b9150509250929050565b7f4e487b7100000000000000000000000000000000000000000000000000000000600052603260045260246000fd5b7f4e487b7100000000000000000000000000000000000000000000000000000000600052601160045260246000fd5b6000819050919050565b6000620005fb82620005e4565b91507fffffffffffffffffffffffffffffffffffffffffffffffffffffffffffffffff820362000630576200062f620005b5565b5b600182019050919050565b7f4e487b7100000000000000000000000000000000000000000000000000000000600052602260045260246000fd5b600060028204905060018216806200068357607f821691505b6020821081036200069957620006986200063b565b5b50919050565b61167f80620006af6000396000f3fe608060405234801561001057600080fd5b50600436106100a95760003560e01c806362d73eb81161007157806362d73eb8146101405780637ed628bb1461014a5780638da5cb5b14610168578063a3ec138d14610186578063c94ca9e3146101b7578063f2fde38b146101d5576100a9565b80630121b93f146100ae5780633477ee2e146100ca57806338db6dd3146100fc5780634717f97c1461011857806359f7846814610136575b600080fd5b6100c860048036038101906100c39190610e00565b6101f1565b005b6100e460048036038101906100df9190610e00565b6104dc565b6040516100f393929190610ed5565b60405180910390f35b61011660048036038101906101119190610f71565b61059e565b005b610120610807565b60405161012d919061105c565b60405180910390f35b61013e6108cb565b005b610148610a5c565b005b610152610b83565b60405161015f9190611099565b60405180910390f35b610170610b96565b60405161017d91906110c3565b60405180910390f35b6101a0600480360381019061019b9190610f71565b610bba565b6040516101ae9291906110de565b60405180910390f35b6101bf610bf8565b6040516101cc9190611099565b60405180910390f35b6101ef60048036038101906101ea9190610f71565b610c0b565b005b600360009054906101000a900460ff16610240576040517f08c379a000000000000000000000000000000000000000000000000000000000815260040161023790611153565b60405180910390fd5b600360019054906101000a900460ff1615610290576040517f08c379a0000000000000000000000000000000000000000000000000000000008152600401610287906111bf565b60405180910390fd5b600160003373ffffffffffffffffffffffffffffffffffffffff1673ffffffffffffffffffffffffffffffffffffffff16815260200190815260200160002060000160009054906101000a900460ff1661031f576040517f08c379a00000000000000000000000000000000000000000000000000000000081526004016103169061122b565b60405180910390fd5b600160003373ffffffffffffffffffffffffffffffffffffffff1673ffffffffffffffffffffffffffffffffffffffff16815260200190815260200160002060000160019054906101000a900460ff16156103af576040517f08c379a00000000000000000000000000000000000000000000000000000000081526004016103a690611297565b60405180910390fd5b60028054905081106103f6576040517f08c379a00000000000000000000000000000000000000000000000000000000081526004016103ed90611303565b60405180910390fd5b60018060003373ffffffffffffffffffffffffffffffffffffffff1673ffffffffffffffffffffffffffffffffffffffff16815260200190815260200160002060000160016101000a81548160ff0219169083151502179055506002818154811061046457610463611323565b5b9060005260206000209060030201600201600081548092919061048690611381565b91905055503373ffffffffffffffffffffffffffffffffffffffff167fd0e6c39f2e086dc49f1524b47725526a56945cd1ff661f37976f1725a1e56986826040516104d191906113c9565b60405180910390a250565b600281815481106104ec57600080fd5b906000526020600020906003020160009150905080600001549080600101805461051590611413565b80601f016020809104026020016040519081016040528092919081815260200182805461054190611413565b801561058e5780601f106105635761010080835404028352916020019161058e565b820191906000526020600020905b81548152906001019060200180831161057157829003601f168201915b5050505050908060020154905083565b60008054906101000a900473ffffffffffffffffffffffffffffffffffffffff1673ffffffffffffffffffffffffffffffffffffffff163373ffffffffffffffffffffffffffffffffffffffff161461062c576040517f08c379a0000000000000000000000000000000000000000000000000000000008152600401610623906114b6565b60405180910390fd5b600360009054906101000a900460ff161561067c576040517f08c379a000000000000000000000000000000000000000000000000000000000815260040161067390611522565b60405180910390fd5b600160008273ffffffffffffffffffffffffffffffffffffffff1673ffffffffffffffffffffffffffffffffffffffff16815260200190815260200160002060000160009054906101000a900460ff161561070c576040517f08c379a00000000000000000000000000000000000000000000000000000000081526004016107039061158e565b60405180910390fd5b60018060008373ffffffffffffffffffffffffffffffffffffffff1673ffffffffffffffffffffffffffffffffffffffff16815260200190815260200160002060000160006101000a81548160ff0219169083151502179055506000600160008373ffffffffffffffffffffffffffffffffffffffff1673ffffffffffffffffffffffffffffffffffffffff16815260200190815260200160002060000160016101000a81548160ff0219169083151502179055508073ffffffffffffffffffffffffffffffffffffffff167fb6be2187d059cc2a55fe29e0e503b566e1e0f8c8780096e185429350acffd3dd60405160405180910390a250565b6060600060028054905067ffffffffffffffff81111561082a576108296115ae565b5b6040519080825280602002602001820160405280156108585781602001602082028036833780820191505090505b50905060005b6002805490508110156108c3576002818154811061087f5761087e611323565b5b9060005260206000209060030201600201548282815181106108a4576108a3611323565b5b60200260200101818152505080806108bb90611381565b91505061085e565b508091505090565b60008054906101000a900473ffffffffffffffffffffffffffffffffffffffff1673ffffffffffffffffffffffffffffffffffffffff163373ffffffffffffffffffffffffffffffffffffffff1614610959576040517f08c379a0000000000000000000000000000000000000000000000000000000008152600401610950906114b6565b60405180910390fd5b600360009054906101000a900460ff166109a8576040517f08c379a000000000000000000000000000000000000000000000000000000000815260040161099f90611153565b60405180910390fd5b600360019054906101000a900460ff16156109f8576040517f08c379a00000000000000000000000000000000000000000000000000000000081526004016109ef906111bf565b60405180910390fd5b6000600360006101000a81548160ff0219169083151502179055506001600360016101000a81548160ff0219169083151502179055507f66ec723071e4bb646f7b35d31bc2dee8510979bd8c180edd0690d4f5e802f1e460405160405180910390a1565b60008054906101000a900473ffffffffffffffffffffffffffffffffffffffff1673ffffffffffffffffffffffffffffffffffffffff163373ffffffffffffffffffffffffffffffffffffffff1614610aea576040517f08c379a0000000000000000000000000000000000000000000000000000000008152600401610ae1906114b6565b60405180910390fd5b600360009054906101000a900460ff1615610b3a576040517f08c379a0000000000000000000000000000000000000000000000000000000008152600401610b3190611522565b60405180910390fd5b6001600360006101000a81548160ff0219169083151502179055507fc475c26aa25ed8e85a7faa790e5f63b5d7ee1025f12821f4c9bfddd36ab4d11260405160405180910390a1565b600360009054906101000a900460ff1681565b60008054906101000a900473ffffffffffffffffffffffffffffffffffffffff1681565b60016020528060005260406000206000915090508060000160009054906101000a900460ff16908060000160019054906101000a900460ff16905082565b600360019054906101000a900460ff1681565b60008054906101000a900473ffffffffffffffffffffffffffffffffffffffff1673ffffffffffffffffffffffffffffffffffffffff163373ffffffffffffffffffffffffffffffffffffffff1614610c99576040517f08c379a0000000000000000000000000000000000000000000000000000000008152600401610c90906114b6565b60405180910390fd5b600073ffffffffffffffffffffffffffffffffffffffff168173ffffffffffffffffffffffffffffffffffffffff1603610d08576040517f08c379a0000000000000000000000000000000000000000000000000000000008152600401610cff90611629565b60405180910390fd5b8073ffffffffffffffffffffffffffffffffffffffff1660008054906101000a900473ffffffffffffffffffffffffffffffffffffffff1673ffffffffffffffffffffffffffffffffffffffff167f8be0079c531659141344cd1fd0a4f28419497f9722a3daafe3b4186f6b6457e060405160405180910390a3806000806101000a81548173ffffffffffffffffffffffffffffffffffffffff021916908373ffffffffffffffffffffffffffffffffffffffff16021790555050565b600080fd5b6000819050919050565b610ddd81610dca565b8114610de857600080fd5b50565b600081359050610dfa81610dd4565b92915050565b600060208284031215610e1657610e15610dc5565b5b6000610e2484828501610deb565b91505092915050565b610e3681610dca565b82525050565b600081519050919050565b600082825260208201905092915050565b60005b83811015610e76578082015181840152602081019050610e5b565b83811115610e85576000848401525b50505050565b6000601f19601f8301169050919050565b6000610ea782610e3c565b610eb18185610e47565b9350610ec1818560208601610e58565b610eca81610e8b565b840191505092915050565b6000606082019050610eea6000830186610e2d565b8181036020830152610efc8185610e9c565b9050610f0b6040830184610e2d565b949350505050565b600073ffffffffffffffffffffffffffffffffffffffff82169050919050565b6000610f3e82610f13565b9050919050565b610f4e81610f33565b8114610f5957600080fd5b50565b600081359050610f6b81610f45565b92915050565b600060208284031215610f8757610f86610dc5565b5b6000610f9584828501610f5c565b91505092915050565b600081519050919050565b600082825260208201905092915050565b6000819050602082019050919050565b610fd381610dca565b82525050565b6000610fe58383610fca565b60208301905092915050565b6000602082019050919050565b600061100982610f9e565b6110138185610fa9565b935061101e83610fba565b8060005b8381101561104f5781516110368882610fd9565b975061104183610ff1565b925050600181019050611022565b5085935050505092915050565b600060208201905081810360008301526110768184610ffe565b905092915050565b60008115159050919050565b6110938161107e565b82525050565b60006020820190506110ae600083018461108a565b92915050565b6110bd81610f33565b82525050565b60006020820190506110d860008301846110b4565b92915050565b60006040820190506110f3600083018561108a565b611100602083018461108a565b9392505050565b7f456c656374696f6e206973206e6f742061637469766500000000000000000000600082015250565b600061113d601683610e47565b915061114882611107565b602082019050919050565b6000602082019050818103600083015261116c81611130565b9050919050565b7f456c656374696f6e2068617320656e6465640000000000000000000000000000600082015250565b60006111a9601283610e47565b91506111b482611173565b602082019050919050565b600060208201905081810360008301526111d88161119c565b9050919050565b7f4e6f74207265676973746572656420746f20766f746500000000000000000000600082015250565b6000611215601683610e47565b9150611220826111df565b602082019050919050565b6000602082019050818103600083015261124481611208565b9050919050565b7f416c726561647920766f74656400000000000000000000000000000000000000600082015250565b6000611281600d83610e47565b915061128c8261124b565b602082019050919050565b600060208201905081810360008301526112b081611274565b9050919050565b7f496e76616c69642063616e646964617465000000000000000000000000000000600082015250565b60006112ed601183610e47565b91506112f8826112b7565b602082019050919050565b6000602082019050818103600083015261131c816112e0565b9050919050565b7f4e487b7100000000000000000000000000000000000000000000000000000000600052603260045260246000fd5b7f4e487b7100000000000000000000000000000000000000000000000000000000600052601160045260246000fd5b600061138c82610dca565b91507fffffffffffffffffffffffffffffffffffffffffffffffffffffffffffffffff82036113be576113bd611352565b5b600182019050919050565b60006020820190506113de6000830184610e2d565b92915050565b7f4e487b7100000000000000000000000000000000000000000000000000000000600052602260045260246000fd5b6000600282049050600182168061142b57607f821691505b60208210810361143e5761143d6113e4565b5b50919050565b7f4f6e6c79206f776e65722063616e2063616c6c20746869732066756e6374696f60008201527f6e00000000000000000000000000000000000000000000000000000000000000602082015250565b60006114a0602183610e47565b91506114ab82611444565b604082019050919050565b600060208201905081810360008301526114cf81611493565b9050919050565b7f456c656374696f6e2068617320616c7265616479207374617274656400000000600082015250565b600061150c601c83610e47565b9150611517826114d6565b602082019050919050565b6000602082019050818103600083015261153b816114ff565b9050919050565b7f566f74657220616c726561647920726567697374657265640000000000000000600082015250565b6000611578601883610e47565b915061158382611542565b602082019050919050565b600060208201905081810360008301526115a78161156b565b9050919050565b7f4e487b7100000000000000000000000000000000000000000000000000000000600052604160045260246000fd5b7f4e6577206f776e65722063616e6e6f74206265207a65726f2061646472657373600082015250565b6000611613602083610e47565b915061161e826115dd565b602082019050919050565b6000602082019050818103600083015261164281611606565b905091905056fea26469706673582212209221c7fcb00b25a3755fad8660f46b1ccd639b13cb46831007c3b1f87f67d6d964736f6c634300080e003360806040523480156200001157600080fd5b50604051620010c6380380620010c6833981810160405281019062000037919062000334565b806000806101000a81548173ffffffffffffffffffffffffffffffffffffffff021916908373ffffffffffffffffffffffffffffffffffffffff16021790555081600190805190602001906200008f92919062000098565b5050506200039a565b82805482825590600052602060002090810192821562000114579160200282015b82811115620001135782518260006101000a81548173ffffffffffffffffffffffffffffffffffffffff021916908373ffffffffffffffffffffffffffffffffffffffff16021790555091602001919060010190620000b9565b5b50905062000123919062000127565b5090565b5b808211156200014257600081600090555060010162000128565b5090565b6000604051905090565b600080fd5b600080fd5b600080fd5b6000601f19601f8301169050919050565b7f4e487b7100000000000000000000000000000000000000000000000000000000600052604160045260246000fd5b620001aa826200015f565b810181811067ffffffffffffffff82111715620001cc57620001cb62000170565b5b80604052505050565b6000620001e162000146565b9050620001ef82826200019f565b919050565b600067ffffffffffffffff82111562000212576200021162000170565b5b602082029050602081019050919050565b600080fd5b600073ffffffffffffffffffffffffffffffffffffffff82169050919050565b6000620002558262000228565b9050919050565b620002678162000248565b81146200027357600080fd5b50565b60008151905062000287816200025c565b92915050565b6000620002a46200029e84620001f4565b620001d5565b90508083825260208201905060208402830185811115620002ca57620002c962000223565b5b835b81811015620002f75780620002e2888262000276565b845260208401935050602081019050620002cc565b5050509392505050565b600082601f8301126200031957620003186200015a565b5b81516200032b8482602086016200028d565b91505092915050565b600080604083850312156200034e576200034d62000150565b5b600083015167ffffffffffffffff8111156200036f576200036e62000155565b5b6200037d8582860162000301565b9250506020620003908582860162000276565b9150509250929050565b610d1c80620003aa6000396000f3fe608060405234801561001057600080fd5b50600436106100575760003560e01c806316faae901461005c57806329c38e9b1461008c5780633c30dc75146100aa5780638da5cb5b146100c6578063f2fde38b146100e4575b600080fd5b610076600480360381019061007191906106f6565b610100565b6040516100839190610764565b60405180910390f35b61009461013f565b6040516100a1919061083d565b60405180910390f35b6100c460048036038101906100bf919061088b565b6103da565b005b6100ce6104ce565b6040516100db9190610764565b60405180910390f35b6100fe60048036038101906100f9919061088b565b6104f2565b005b6001818154811061011057600080fd5b906000526020600020016000915054906101000a900473ffffffffffffffffffffffffffffffffffffffff1681565b6060600060018054905011610189576040517f08c379a000000000000000000000000000000000000000000000000000000000815260040161018090610915565b60405180910390fd5b600060016000815481106101a05761019f610935565b5b9060005260206000200160009054906101000a900473ffffffffffffffffffffffffffffffffffffffff1673ffffffffffffffffffffffffffffffffffffffff16634717f97c6040518163ffffffff1660e01b8152600401600060405180830381865afa158015610215573d6000803e3d6000fd5b505050506040513d6000823e3d601f19601f8201168201806040525081019061023e9190610ad2565b51905060008167ffffffffffffffff81111561025d5761025c61097a565b5b60405190808252806020026020018201604052801561028b5781602001602082028036833780820191505090505b50905060005b6001805490508110156103d1576000600182815481106102b4576102b3610935565b5b9060005260206000200160009054906101000a900473ffffffffffffffffffffffffffffffffffffffff1673ffffffffffffffffffffffffffffffffffffffff16634717f97c6040518163ffffffff1660e01b8152600401600060405180830381865afa158015610329573d6000803e3d6000fd5b505050506040513d6000823e3d601f19601f820116820180604052508101906103529190610ad2565b905060005b81518110156103bc5781818151811061037357610372610935565b5b602002602001015184828151811061038e5761038d610935565b5b602002602001018181516103a29190610b4a565b9150818152505080806103b490610ba0565b915050610357565b505080806103c990610ba0565b915050610291565b50809250505090565b60008054906101000a900473ffffffffffffffffffffffffffffffffffffffff1673ffffffffffffffffffffffffffffffffffffffff163373ffffffffffffffffffffffffffffffffffffffff1614610468576040517f08c379a000000000000000000000000000000000000000000000000000000000815260040161045f90610c5a565b60405180910390fd5b6001819080600181540180825580915050600190039060005260206000200160009091909190916101000a81548173ffffffffffffffffffffffffffffffffffffffff021916908373ffffffffffffffffffffffffffffffffffffffff16021790555050565b60008054906101000a900473ffffffffffffffffffffffffffffffffffffffff1681565b60008054906101000a900473ffffffffffffffffffffffffffffffffffffffff1673ffffffffffffffffffffffffffffffffffffffff163373ffffffffffffffffffffffffffffffffffffffff1614610580576040517f08c379a000000000000000000000000000000000000000000000000000000000815260040161057790610c5a565b60405180910390fd5b600073ffffffffffffffffffffffffffffffffffffffff168173ffffffffffffffffffffffffffffffffffffffff16036105ef576040517f08c379a00000000000000000000000000000000000000000000000000000000081526004016105e690610cc6565b60405180910390fd5b8073ffffffffffffffffffffffffffffffffffffffff1660008054906101000a900473ffffffffffffffffffffffffffffffffffffffff1673ffffffffffffffffffffffffffffffffffffffff167f8be0079c531659141344cd1fd0a4f28419497f9722a3daafe3b4186f6b6457e060405160405180910390a3806000806101000a81548173ffffffffffffffffffffffffffffffffffffffff021916908373ffffffffffffffffffffffffffffffffffffffff16021790555050565b6000604051905090565b600080fd5b600080fd5b6000819050919050565b6106d3816106c0565b81146106de57600080fd5b50565b6000813590506106f0816106ca565b92915050565b60006020828403121561070c5761070b6106b6565b5b600061071a848285016106e1565b91505092915050565b600073ffffffffffffffffffffffffffffffffffffffff82169050919050565b600061074e82610723565b9050919050565b61075e81610743565b82525050565b60006020820190506107796000830184610755565b92915050565b600081519050919050565b600082825260208201905092915050565b6000819050602082019050919050565b6107b4816106c0565b82525050565b60006107c683836107ab565b60208301905092915050565b6000602082019050919050565b60006107ea8261077f565b6107f4818561078a565b93506107ff8361079b565b8060005b8381101561083057815161081788826107ba565b9750610822836107d2565b925050600181019050610803565b5085935050505092915050565b6000602082019050818103600083015261085781846107df565b905092915050565b61086881610743565b811461087357600080fd5b50565b6000813590506108858161085f565b92915050565b6000602082840312156108a1576108a06106b6565b5b60006108af84828501610876565b91505092915050565b600082825260208201905092915050565b7f4e6f2073686172647320617661696c61626c6500000000000000000000000000600082015250565b60006108ff6013836108b8565b915061090a826108c9565b602082019050919050565b6000602082019050818103600083015261092e816108f2565b9050919050565b7f4e487b7100000000000000000000000000000000000000000000000000000000600052603260045260246000fd5b600080fd5b6000601f19601f8301169050919050565b7f4e487b7100000000000000000000000000000000000000000000000000000000600052604160045260246000fd5b6109b282610969565b810181811067ffffffffffffffff821117156109d1576109d061097a565b5b80604052505050565b60006109e46106ac565b90506109f082826109a9565b919050565b600067ffffffffffffffff821115610a1057610a0f61097a565b5b602082029050602081019050919050565b600080fd5b600081519050610a35816106ca565b92915050565b6000610a4e610a49846109f5565b6109da565b90508083825260208201905060208402830185811115610a7157610a70610a21565b5b835b81811015610a9a5780610a868882610a26565b845260208401935050602081019050610a73565b5050509392505050565b600082601f830112610ab957610ab8610964565b5b8151610ac9848260208601610a3b565b91505092915050565b600060208284031215610ae857610ae76106b6565b5b600082015167ffffffffffffffff811115610b0657610b056106bb565b5b610b1284828501610aa4565b91505092915050565b7f4e487b7100000000000000000000000000000000000000000000000000000000600052601160045260246000fd5b6000610b55826106c0565b9150610b60836106c0565b9250827fffffffffffffffffffffffffffffffffffffffffffffffffffffffffffffffff03821115610b9557610b94610b1b565b5b828201905092915050565b6000610bab826106c0565b91507fffffffffffffffffffffffffffffffffffffffffffffffffffffffffffffffff8203610bdd57610bdc610b1b565b5b600182019050919050565b7f4f6e6c79206f776e65722063616e2063616c6c20746869732066756e6374696f60008201527f6e00000000000000000000000000000000000000000000000000000000000000602082015250565b6000610c446021836108b8565b9150610c4f82610be8565b604082019050919050565b60006020820190508181036000830152610c7381610c37565b9050919050565b7f4e6577206f776e65722063616e6e6f74206265207a65726f2061646472657373600082015250565b6000610cb06020836108b8565b9150610cbb82610c7a565b602082019050919050565b60006020820190508181036000830152610cdf81610ca3565b905091905056fea2646970667358221220f80917dbcee87a536a10de6f232055c5c42774811beccf3d1779a2e3fc239d0b64736f6c634300080e0033",
  "immutableReferences": {},
  "source": "// SPDX-License-Identifier: MIT\r\npragma solidity ^0.8.0;\r\nimport \"./ShardVoting.sol\";\r\nimport \"./MainAggregator.sol\";\r\n\r\n//updated\r\n\r\ncontract RegionDeployment {\r\n    address public owner;\r\n    ShardVoting[] public shards;\r\n    MainAggregator public aggregator;\r\n\r\n    modifier onlyOwner() {\r\n        require(msg.sender == owner, \"Only owner can call this function\");\r\n        _;\r\n    }\r\n\r\n    constructor(string[][] memory regionCandidates) {\r\n        owner = msg.sender;  // Set the deployer as the owner\r\n        address[] memory shardAddresses = new address[](regionCandidates.length);\r\n\r\n        for (uint i = 0; i < regionCandidates.length; i++) {\r\n            // Create shard with the deployer as owner\r\n            ShardVoting shard = new ShardVoting(regionCandidates[i], msg.sender);\r\n            shards.push(shard);\r\n            shardAddresses[i] = address(shard);\r\n        }\r\n\r\n        // Create MainAggregator with the deployer as owner\r\n        aggregator = new MainAggregator(shardAddresses, msg.sender);\r\n    }\r\n\r\n    // Function to add a new shard (only owner can call)\r\n    function addShard(address shardAddress) public onlyOwner {\r\n        shards.push(ShardVoting(shardAddress));\r\n    }\r\n\r\n    // Function to get number of shards\r\n    function getShardCount() public view returns (uint) {\r\n        return shards.length;\r\n    }\r\n}\r\n",
  "sourcePath": "C:\\Users\\Satkrit\\OneDrive\\Desktop\\Voting System\\voting-dapp\\contracts\\RegionDeployment.sol",
  "compiler": {
    "name": "solc",
    "version": "0.8.14+commit.80d49f37.Emscripten.clang"
  },
  "schemaVersion": "3.4.16",
  "updatedAt": "2025-04-27T12:00:53.489Z",
  "networkType": "ethereum",
  "devdoc": {
    "kind": "dev",
    "methods": {},
    "version": 1
  },
  "userdoc": {
    "kind": "user",
    "methods": {},
    "version": 1
  }
}