{
  "contractName": "ShardVoting",
  "abi": [
    {
      "inputs": [
        {
          "internalType": "string[]",
          "name": "candidateNames",
          "type": "string[]"
        },
        {
          "internalType": "address",
          "name": "_owner",
          "type": "address"
        }
      ],
      "stateMutability": "nonpayable",
      "type": "constructor"
    },
    {
      "anonymous": false,
      "inputs": [],
      "name": "ElectionEnded",
      "type": "event"
    },
    {
      "anonymous": false,
      "inputs": [],
      "name": "ElectionStarted",
      "type": "event"
    },
    {
      "anonymous": false,
      "inputs": [
        {
          "indexed": true,
          "internalType": "address",
          "name": "previousOwner",
          "type": "address"
        },
        {
          "indexed": true,
          "internalType": "address",
          "name": "newOwner",
          "type": "address"
        }
      ],
      "name": "OwnershipTransferred",
      "type": "event"
    },
    {
      "anonymous": false,
      "inputs": [
        {
          "indexed": true,
          "internalType": "address",
          "name": "voter",
          "type": "address"
        },
        {
          "indexed": false,
          "internalType": "uint256",
          "name": "candidateId",
          "type": "uint256"
        }
      ],
      "name": "VoteCasted",
      "type": "event"
    },
    {
      "anonymous": false,
      "inputs": [
        {
          "indexed": true,
          "internalType": "address",
          "name": "voter",
          "type": "address"
        }
      ],
      "name": "VoterRegistered",
      "type": "event"
    },
    {
      "inputs": [
        {
          "internalType": "uint256",
          "name": "",
          "type": "uint256"
        }
      ],
      "name": "candidates",
      "outputs": [
        {
          "internalType": "uint256",
          "name": "id",
          "type": "uint256"
        },
        {
          "internalType": "string",
          "name": "name",
          "type": "string"
        },
        {
          "internalType": "uint256",
          "name": "voteCount",
          "type": "uint256"
        }
      ],
      "stateMutability": "view",
      "type": "function",
      "constant": true
    },
    {
      "inputs": [],
      "name": "electionActive",
      "outputs": [
        {
          "internalType": "bool",
          "name": "",
          "type": "bool"
        }
      ],
      "stateMutability": "view",
      "type": "function",
      "constant": true
    },
    {
      "inputs": [],
      "name": "electionEnded",
      "outputs": [
        {
          "internalType": "bool",
          "name": "",
          "type": "bool"
        }
      ],
      "stateMutability": "view",
      "type": "function",
      "constant": true
    },
    {
      "inputs": [],
      "name": "owner",
      "outputs": [
        {
          "internalType": "address",
          "name": "",
          "type": "address"
        }
      ],
      "stateMutability": "view",
      "type": "function",
      "constant": true
    },
    {
      "inputs": [
        {
          "internalType": "address",
          "name": "",
          "type": "address"
        }
      ],
      "name": "voters",
      "outputs": [
        {
          "internalType": "bool",
          "name": "isRegistered",
          "type": "bool"
        },
        {
          "internalType": "bool",
          "name": "hasVoted",
          "type": "bool"
        }
      ],
      "stateMutability": "view",
      "type": "function",
      "constant": true
    },
    {
      "inputs": [
        {
          "internalType": "address",
          "name": "newOwner",
          "type": "address"
        }
      ],
      "name": "transferOwnership",
      "outputs": [],
      "stateMutability": "nonpayable",
      "type": "function"
    },
    {
      "inputs": [
        {
          "internalType": "address",
          "name": "_voter",
          "type": "address"
        }
      ],
      "name": "registerVoter",
      "outputs": [],
      "stateMutability": "nonpayable",
      "type": "function"
    },
    {
      "inputs": [],
      "name": "startElection",
      "outputs": [],
      "stateMutability": "nonpayable",
      "type": "function"
    },
    {
      "inputs": [],
      "name": "endElection",
      "outputs": [],
      "stateMutability": "nonpayable",
      "type": "function"
    },
    {
      "inputs": [
        {
          "internalType": "uint256",
          "name": "candidateId",
          "type": "uint256"
        }
      ],
      "name": "vote",
      "outputs": [],
      "stateMutability": "nonpayable",
      "type": "function"
    },
    {
      "inputs": [],
      "name": "getResults",
      "outputs": [
        {
          "internalType": "uint256[]",
          "name": "",
          "type": "uint256[]"
        }
      ],
      "stateMutability": "view",
      "type": "function",
      "constant": true
    }
  ],
  "bytecode": "0x60806040526000600360006101000a81548160ff0219169083151502179055506000600360016101000a81548160ff0219169083151502179055503480156200004757600080fd5b5060405162001d2e38038062001d2e83398181016040528101906200006d919062000520565b806000806101000a81548173ffffffffffffffffffffffffffffffffffffffff021916908373ffffffffffffffffffffffffffffffffffffffff16021790555060005b8251811015620001695760026040518060600160405280838152602001858481518110620000e357620000e262000586565b5b60200260200101518152602001600081525090806001815401808255809150506001900390600052602060002090600302016000909190919091506000820151816000015560208201518160010190805190602001906200014692919062000172565b5060408201518160020155505080806200016090620005ee565b915050620000b0565b5050506200069f565b82805462000180906200066a565b90600052602060002090601f016020900481019282620001a45760008555620001f0565b82601f10620001bf57805160ff1916838001178555620001f0565b82800160010185558215620001f0579182015b82811115620001ef578251825591602001919060010190620001d2565b5b509050620001ff919062000203565b5090565b5b808211156200021e57600081600090555060010162000204565b5090565b6000604051905090565b600080fd5b600080fd5b600080fd5b6000601f19601f8301169050919050565b7f4e487b7100000000000000000000000000000000000000000000000000000000600052604160045260246000fd5b62000286826200023b565b810181811067ffffffffffffffff82111715620002a857620002a76200024c565b5b80604052505050565b6000620002bd62000222565b9050620002cb82826200027b565b919050565b600067ffffffffffffffff821115620002ee57620002ed6200024c565b5b602082029050602081019050919050565b600080fd5b600080fd5b600067ffffffffffffffff8211156200032757620003266200024c565b5b62000332826200023b565b9050602081019050919050565b60005b838110156200035f57808201518184015260208101905062000342565b838111156200036f576000848401525b50505050565b60006200038c620003868462000309565b620002b1565b905082815260208101848484011115620003ab57620003aa62000304565b5b620003b88482856200033f565b509392505050565b600082601f830112620003d857620003d762000236565b5b8151620003ea84826020860162000375565b91505092915050565b60006200040a6200040484620002d0565b620002b1565b9050808382526020820190506020840283018581111562000430576200042f620002ff565b5b835b818110156200047e57805167ffffffffffffffff81111562000459576200045862000236565b5b808601620004688982620003c0565b8552602085019450505060208101905062000432565b5050509392505050565b600082601f830112620004a0576200049f62000236565b5b8151620004b2848260208601620003f3565b91505092915050565b600073ffffffffffffffffffffffffffffffffffffffff82169050919050565b6000620004e882620004bb565b9050919050565b620004fa81620004db565b81146200050657600080fd5b50565b6000815190506200051a81620004ef565b92915050565b600080604083850312156200053a57620005396200022c565b5b600083015167ffffffffffffffff8111156200055b576200055a62000231565b5b620005698582860162000488565b92505060206200057c8582860162000509565b9150509250929050565b7f4e487b7100000000000000000000000000000000000000000000000000000000600052603260045260246000fd5b7f4e487b7100000000000000000000000000000000000000000000000000000000600052601160045260246000fd5b6000819050919050565b6000620005fb82620005e4565b91507fffffffffffffffffffffffffffffffffffffffffffffffffffffffffffffffff820362000630576200062f620005b5565b5b600182019050919050565b7f4e487b7100000000000000000000000000000000000000000000000000000000600052602260045260246000fd5b600060028204905060018216806200068357607f821691505b6020821081036200069957620006986200063b565b5b50919050565b61167f80620006af6000396000f3fe608060405234801561001057600080fd5b50600436106100a95760003560e01c806362d73eb81161007157806362d73eb8146101405780637ed628bb1461014a5780638da5cb5b14610168578063a3ec138d14610186578063c94ca9e3146101b7578063f2fde38b146101d5576100a9565b80630121b93f146100ae5780633477ee2e146100ca57806338db6dd3146100fc5780634717f97c1461011857806359f7846814610136575b600080fd5b6100c860048036038101906100c39190610e00565b6101f1565b005b6100e460048036038101906100df9190610e00565b6104dc565b6040516100f393929190610ed5565b60405180910390f35b61011660048036038101906101119190610f71565b61059e565b005b610120610807565b60405161012d919061105c565b60405180910390f35b61013e6108cb565b005b610148610a5c565b005b610152610b83565b60405161015f9190611099565b60405180910390f35b610170610b96565b60405161017d91906110c3565b60405180910390f35b6101a0600480360381019061019b9190610f71565b610bba565b6040516101ae9291906110de565b60405180910390f35b6101bf610bf8565b6040516101cc9190611099565b60405180910390f35b6101ef60048036038101906101ea9190610f71565b610c0b565b005b600360009054906101000a900460ff16610240576040517f08c379a000000000000000000000000000000000000000000000000000000000815260040161023790611153565b60405180910390fd5b600360019054906101000a900460ff1615610290576040517f08c379a0000000000000000000000000000000000000000000000000000000008152600401610287906111bf565b60405180910390fd5b600160003373ffffffffffffffffffffffffffffffffffffffff1673ffffffffffffffffffffffffffffffffffffffff16815260200190815260200160002060000160009054906101000a900460ff1661031f576040517f08c379a00000000000000000000000000000000000000000000000000000000081526004016103169061122b565b60405180910390fd5b600160003373ffffffffffffffffffffffffffffffffffffffff1673ffffffffffffffffffffffffffffffffffffffff16815260200190815260200160002060000160019054906101000a900460ff16156103af576040517f08c379a00000000000000000000000000000000000000000000000000000000081526004016103a690611297565b60405180910390fd5b60028054905081106103f6576040517f08c379a00000000000000000000000000000000000000000000000000000000081526004016103ed90611303565b60405180910390fd5b60018060003373ffffffffffffffffffffffffffffffffffffffff1673ffffffffffffffffffffffffffffffffffffffff16815260200190815260200160002060000160016101000a81548160ff0219169083151502179055506002818154811061046457610463611323565b5b9060005260206000209060030201600201600081548092919061048690611381565b91905055503373ffffffffffffffffffffffffffffffffffffffff167fd0e6c39f2e086dc49f1524b47725526a56945cd1ff661f37976f1725a1e56986826040516104d191906113c9565b60405180910390a250565b600281815481106104ec57600080fd5b906000526020600020906003020160009150905080600001549080600101805461051590611413565b80601f016020809104026020016040519081016040528092919081815260200182805461054190611413565b801561058e5780601f106105635761010080835404028352916020019161058e565b820191906000526020600020905b81548152906001019060200180831161057157829003601f168201915b5050505050908060020154905083565b60008054906101000a900473ffffffffffffffffffffffffffffffffffffffff1673ffffffffffffffffffffffffffffffffffffffff163373ffffffffffffffffffffffffffffffffffffffff161461062c576040517f08c379a0000000000000000000000000000000000000000000000000000000008152600401610623906114b6565b60405180910390fd5b600360009054906101000a900460ff161561067c576040517f08c379a000000000000000000000000000000000000000000000000000000000815260040161067390611522565b60405180910390fd5b600160008273ffffffffffffffffffffffffffffffffffffffff1673ffffffffffffffffffffffffffffffffffffffff16815260200190815260200160002060000160009054906101000a900460ff161561070c576040517f08c379a00000000000000000000000000000000000000000000000000000000081526004016107039061158e565b60405180910390fd5b60018060008373ffffffffffffffffffffffffffffffffffffffff1673ffffffffffffffffffffffffffffffffffffffff16815260200190815260200160002060000160006101000a81548160ff0219169083151502179055506000600160008373ffffffffffffffffffffffffffffffffffffffff1673ffffffffffffffffffffffffffffffffffffffff16815260200190815260200160002060000160016101000a81548160ff0219169083151502179055508073ffffffffffffffffffffffffffffffffffffffff167fb6be2187d059cc2a55fe29e0e503b566e1e0f8c8780096e185429350acffd3dd60405160405180910390a250565b6060600060028054905067ffffffffffffffff81111561082a576108296115ae565b5b6040519080825280602002602001820160405280156108585781602001602082028036833780820191505090505b50905060005b6002805490508110156108c3576002818154811061087f5761087e611323565b5b9060005260206000209060030201600201548282815181106108a4576108a3611323565b5b60200260200101818152505080806108bb90611381565b91505061085e565b508091505090565b60008054906101000a900473ffffffffffffffffffffffffffffffffffffffff1673ffffffffffffffffffffffffffffffffffffffff163373ffffffffffffffffffffffffffffffffffffffff1614610959576040517f08c379a0000000000000000000000000000000000000000000000000000000008152600401610950906114b6565b60405180910390fd5b600360009054906101000a900460ff166109a8576040517f08c379a000000000000000000000000000000000000000000000000000000000815260040161099f90611153565b60405180910390fd5b600360019054906101000a900460ff16156109f8576040517f08c379a00000000000000000000000000000000000000000000000000000000081526004016109ef906111bf565b60405180910390fd5b6000600360006101000a81548160ff0219169083151502179055506001600360016101000a81548160ff0219169083151502179055507f66ec723071e4bb646f7b35d31bc2dee8510979bd8c180edd0690d4f5e802f1e460405160405180910390a1565b60008054906101000a900473ffffffffffffffffffffffffffffffffffffffff1673ffffffffffffffffffffffffffffffffffffffff163373ffffffffffffffffffffffffffffffffffffffff1614610aea576040517f08c379a0000000000000000000000000000000000000000000000000000000008152600401610ae1906114b6565b60405180910390fd5b600360009054906101000a900460ff1615610b3a576040517f08c379a0000000000000000000000000000000000000000000000000000000008152600401610b3190611522565b60405180910390fd5b6001600360006101000a81548160ff0219169083151502179055507fc475c26aa25ed8e85a7faa790e5f63b5d7ee1025f12821f4c9bfddd36ab4d11260405160405180910390a1565b600360009054906101000a900460ff1681565b60008054906101000a900473ffffffffffffffffffffffffffffffffffffffff1681565b60016020528060005260406000206000915090508060000160009054906101000a900460ff16908060000160019054906101000a900460ff16905082565b600360019054906101000a900460ff1681565b60008054906101000a900473ffffffffffffffffffffffffffffffffffffffff1673ffffffffffffffffffffffffffffffffffffffff163373ffffffffffffffffffffffffffffffffffffffff1614610c99576040517f08c379a0000000000000000000000000000000000000000000000000000000008152600401610c90906114b6565b60405180910390fd5b600073ffffffffffffffffffffffffffffffffffffffff168173ffffffffffffffffffffffffffffffffffffffff1603610d08576040517f08c379a0000000000000000000000000000000000000000000000000000000008152600401610cff90611629565b60405180910390fd5b8073ffffffffffffffffffffffffffffffffffffffff1660008054906101000a900473ffffffffffffffffffffffffffffffffffffffff1673ffffffffffffffffffffffffffffffffffffffff167f8be0079c531659141344cd1fd0a4f28419497f9722a3daafe3b4186f6b6457e060405160405180910390a3806000806101000a81548173ffffffffffffffffffffffffffffffffffffffff021916908373ffffffffffffffffffffffffffffffffffffffff16021790555050565b600080fd5b6000819050919050565b610ddd81610dca565b8114610de857600080fd5b50565b600081359050610dfa81610dd4565b92915050565b600060208284031215610e1657610e15610dc5565b5b6000610e2484828501610deb565b91505092915050565b610e3681610dca565b82525050565b600081519050919050565b600082825260208201905092915050565b60005b83811015610e76578082015181840152602081019050610e5b565b83811115610e85576000848401525b50505050565b6000601f19601f8301169050919050565b6000610ea782610e3c565b610eb18185610e47565b9350610ec1818560208601610e58565b610eca81610e8b565b840191505092915050565b6000606082019050610eea6000830186610e2d565b8181036020830152610efc8185610e9c565b9050610f0b6040830184610e2d565b949350505050565b600073ffffffffffffffffffffffffffffffffffffffff82169050919050565b6000610f3e82610f13565b9050919050565b610f4e81610f33565b8114610f5957600080fd5b50565b600081359050610f6b81610f45565b92915050565b600060208284031215610f8757610f86610dc5565b5b6000610f9584828501610f5c565b91505092915050565b600081519050919050565b600082825260208201905092915050565b6000819050602082019050919050565b610fd381610dca565b82525050565b6000610fe58383610fca565b60208301905092915050565b6000602082019050919050565b600061100982610f9e565b6110138185610fa9565b935061101e83610fba565b8060005b8381101561104f5781516110368882610fd9565b975061104183610ff1565b925050600181019050611022565b5085935050505092915050565b600060208201905081810360008301526110768184610ffe565b905092915050565b60008115159050919050565b6110938161107e565b82525050565b60006020820190506110ae600083018461108a565b92915050565b6110bd81610f33565b82525050565b60006020820190506110d860008301846110b4565b92915050565b60006040820190506110f3600083018561108a565b611100602083018461108a565b9392505050565b7f456c656374696f6e206973206e6f742061637469766500000000000000000000600082015250565b600061113d601683610e47565b915061114882611107565b602082019050919050565b6000602082019050818103600083015261116c81611130565b9050919050565b7f456c656374696f6e2068617320656e6465640000000000000000000000000000600082015250565b60006111a9601283610e47565b91506111b482611173565b602082019050919050565b600060208201905081810360008301526111d88161119c565b9050919050565b7f4e6f74207265676973746572656420746f20766f746500000000000000000000600082015250565b6000611215601683610e47565b9150611220826111df565b602082019050919050565b6000602082019050818103600083015261124481611208565b9050919050565b7f416c726561647920766f74656400000000000000000000000000000000000000600082015250565b6000611281600d83610e47565b915061128c8261124b565b602082019050919050565b600060208201905081810360008301526112b081611274565b9050919050565b7f496e76616c69642063616e646964617465000000000000000000000000000000600082015250565b60006112ed601183610e47565b91506112f8826112b7565b602082019050919050565b6000602082019050818103600083015261131c816112e0565b9050919050565b7f4e487b7100000000000000000000000000000000000000000000000000000000600052603260045260246000fd5b7f4e487b7100000000000000000000000000000000000000000000000000000000600052601160045260246000fd5b600061138c82610dca565b91507fffffffffffffffffffffffffffffffffffffffffffffffffffffffffffffffff82036113be576113bd611352565b5b600182019050919050565b60006020820190506113de6000830184610e2d565b92915050565b7f4e487b7100000000000000000000000000000000000000000000000000000000600052602260045260246000fd5b6000600282049050600182168061142b57607f821691505b60208210810361143e5761143d6113e4565b5b50919050565b7f4f6e6c79206f776e65722063616e2063616c6c20746869732066756e6374696f60008201527f6e00000000000000000000000000000000000000000000000000000000000000602082015250565b60006114a0602183610e47565b91506114ab82611444565b604082019050919050565b600060208201905081810360008301526114cf81611493565b9050919050565b7f456c656374696f6e2068617320616c7265616479207374617274656400000000600082015250565b600061150c601c83610e47565b9150611517826114d6565b602082019050919050565b6000602082019050818103600083015261153b816114ff565b9050919050565b7f566f74657220616c726561647920726567697374657265640000000000000000600082015250565b6000611578601883610e47565b915061158382611542565b602082019050919050565b600060208201905081810360008301526115a78161156b565b9050919050565b7f4e487b7100000000000000000000000000000000000000000000000000000000600052604160045260246000fd5b7f4e6577206f776e65722063616e6e6f74206265207a65726f2061646472657373600082015250565b6000611613602083610e47565b915061161e826115dd565b602082019050919050565b6000602082019050818103600083015261164281611606565b905091905056fea26469706673582212209221c7fcb00b25a3755fad8660f46b1ccd639b13cb46831007c3b1f87f67d6d964736f6c634300080e0033",
  "immutableReferences": {},
  "source": "// SPDX-License-Identifier: MIT\r\npragma solidity ^0.8.0;\r\n\r\n//updated\r\ncontract ShardVoting {\r\n    struct Candidate {\r\n        uint256 id;\r\n        string name;\r\n        uint voteCount;\r\n    }\r\n\r\n    struct Voter {\r\n        bool isRegistered;\r\n        bool hasVoted;\r\n    }\r\n\r\n    address public owner;\r\n    mapping(address => Voter) public voters;\r\n    Candidate[] public candidates;\r\n    bool public electionActive = false;\r\n    bool public electionEnded = false;\r\n\r\n    event VoteCasted(address indexed voter, uint256 candidateId);\r\n    event VoterRegistered(address indexed voter);\r\n    event ElectionStarted();\r\n    event ElectionEnded();\r\n    event OwnershipTransferred(address indexed previousOwner, address indexed newOwner);\r\n\r\n    constructor(string[] memory candidateNames, address _owner) {\r\n        owner = _owner;\r\n        for (uint i = 0; i < candidateNames.length; i++) {\r\n            candidates.push(Candidate(i, candidateNames[i], 0));\r\n        }\r\n    }\r\n\r\n    modifier onlyOwner() {\r\n        require(msg.sender == owner, \"Only owner can call this function\");\r\n        _;\r\n    }\r\n\r\n    modifier electionNotStarted() {\r\n        require(!electionActive, \"Election has already started\");\r\n        _;\r\n    }\r\n\r\n    modifier electionIsActive() {\r\n        require(electionActive, \"Election is not active\");\r\n        require(!electionEnded, \"Election has ended\");\r\n        _;\r\n    }\r\n\r\n    function transferOwnership(address newOwner) public onlyOwner {\r\n        require(newOwner != address(0), \"New owner cannot be zero address\");\r\n        emit OwnershipTransferred(owner, newOwner);\r\n        owner = newOwner;\r\n    }\r\n\r\n    function registerVoter(address _voter) public onlyOwner electionNotStarted {\r\n        require(!voters[_voter].isRegistered, \"Voter already registered\");\r\n        voters[_voter].isRegistered = true;\r\n        voters[_voter].hasVoted = false;\r\n        emit VoterRegistered(_voter);\r\n    }\r\n\r\n    function startElection() public onlyOwner electionNotStarted {\r\n        electionActive = true;\r\n        emit ElectionStarted();\r\n    }\r\n\r\n    function endElection() public onlyOwner electionIsActive {\r\n        electionActive = false;\r\n        electionEnded = true;\r\n        emit ElectionEnded();\r\n    }\r\n\r\n    function vote(uint256 candidateId) public electionIsActive {\r\n        require(voters[msg.sender].isRegistered, \"Not registered to vote\");\r\n        require(!voters[msg.sender].hasVoted, \"Already voted\");\r\n        require(candidateId < candidates.length, \"Invalid candidate\");\r\n\r\n        voters[msg.sender].hasVoted = true;\r\n        candidates[candidateId].voteCount++;\r\n\r\n        emit VoteCasted(msg.sender, candidateId);\r\n    }\r\n\r\n    function getResults() public view returns (uint256[] memory) {\r\n        uint256[] memory results = new uint256[](candidates.length);\r\n        for (uint i = 0; i < candidates.length; i++) {\r\n            results[i] = candidates[i].voteCount;\r\n        }\r\n        return results;\r\n    }\r\n}",
  "sourcePath": "C:\\Users\\Satkrit\\OneDrive\\Desktop\\Voting System\\voting-dapp\\contracts\\ShardVoting.sol",
  "compiler": {
    "name": "solc",
    "version": "0.8.14+commit.80d49f37.Emscripten.clang"
  },
  "schemaVersion": "3.4.16",
  "updatedAt": "2025-04-27T12:00:53.477Z",
  "networkType": "ethereum",
  "devdoc": {
    "kind": "dev",
    "methods": {},
    "version": 1
  },
  "userdoc": {
    "kind": "user",
    "methods": {},
    "version": 1
  }
}